:020000040800F2
:10000000980600208901000891010008930100086A
:100010009501000897010008990100080000000000
:100020000000000000000000000000009B0100082C
:100030009D010008000000009F010008A1010008C8
:10004000A3010008A3010008A3010008A301000800
:10005000A3010008A3010008A3010008A3010008F0
:10006000A3010008A3010008A3010008A3010008E0
:10007000A3010008A3010008A3010008A3010008D0
:10008000A3010008A3010008A3010008A3010008C0
:10009000A3010008A3010008A3010008A3010008B0
:1000A000A3010008A3010008A3010008A3010008A0
:1000B000A30100087909000800000000A30100085E
:1000C000A30100080000000000000000A3010008D8
:1000D00000000000050C0008A3010008000000005B
:1000E000A3010008A3010008A301000800F002F822
:1000F00000F03AF80AA090E8000C82448344AAF188
:100100000107DA4501D100F02FF8AFF2090EBAE885
:100110000F0013F0010F18BFFB1A43F0010318473B
:10012000A8190000C8190000103A24BF78C878C187
:10013000FAD8520724BF30C830C144BF04680C60ED
:10014000704700000023002400250026103A28BF35
:1001500078C1FBD8520728BF30C148BF0B60704739
:100160001FB51FBD10B510BD00F0B4F81146FFF764
:10017000F7FF00F0DFFE00F0E6F803B4FFF7F2FF50
:1001800003BC00F01AFE00000948804709480047F8
:10019000FEE7FEE7FEE7FEE7FEE7FEE7FEE7FEE737
:1001A000FEE7FEE704480549054A064B7047000094
:1001B00019090008ED0000089800002098060020AA
:1001C0009802002098020020704700000FB40449F4
:1001D00010B503AA029800F047F810BC5DF814FBB4
:1001E0001800002010B5203AC0F00B80B1E818507C
:1001F000203AA0E81850B1E81850A0E81850BFF411
:10020000F5AF5FEA027C24BFB1E81850A0E81850AF
:1002100044BF18C918C0BDE810405FEA827C24BF03
:1002200051F8043B40F8043B08BF7047D20728BF91
:1002300031F8023B48BF11F8012B28BF20F8023BE0
:1002400048BF00F8012B70477047704770477047F0
:1002500010B500F01BF8006810BD10B5044600F0A2
:1002600015F8046010BD0000074B70B50D467B44C7
:1002700000F015F80446284600F024F810B14FF0BD
:10028000FF3070BD204670BD4F0B00000048704726
:100290003400002001694A1C02610878704700B5EB
:1002A0008FB0CDE901310021059105497944CDE9AF
:1002B00003101146684600F032F80FB000BD000090
:1002C000E5FFFFFF007B00F08000704700487047AB
:1002D000340000207546FFF7F9FFAE460500694679
:1002E000534620F00700854618B020B5FFF75AFFA7
:1002F000BDE820404FF000064FF000074FF0000827
:100300004FF0000B21F00701AC46ACE8C009ACE8A7
:10031000C009ACE8C009ACE8C0098D4670472DE9BA
:10032000F04106460024D6E90170F5688046304663
:1003300003E04146B847641C3046A8470028F8D17E
:100340002046BDE8F08110B50446AFF3008020469A
:10035000BDE81040FFF711BF70B502464B1E18E014
:10036000481E11E052F82060451E52F82550AE425A
:1003700009DD52F82040451E52F8255042F8205021
:10038000451E42F82540401E4D1EED1A8542E9DB10
:100390005B1E002BE4DC70BD01461D48814204D188
:1003A0001C488069C0F3800070471B48814204D11B
:1003B00018488069C0F3C000F6E71848814204D1AC
:1003C00014488069C0F30010EEE71548814204D15B
:1003D00010488069C0F34010E6E71248814204D11A
:1003E0000C488069C0F38010DEE70F48814204D1D9
:1003F00008488069C0F3C010D6E70C48814204D198
:1004000004488069C0F30020CEE70020CCE700005C
:100410000008014000100240000C014000100140A3
:100420000014014000180140001C01400020014060
:100430002DE9F04105460C46174698460F2C02D987
:100440000020BDE8F0812846FFF7A6FF18B901217A
:10045000284600F029F8B8F1000F10D1022F05D17D
:10046000E8680121A1408843E86008E0032F06D135
:1004700027F00107E8680121A1400843E860082C43
:1004800001D22E4601E0083C2E1D3068A2000F214B
:1004900091408843306048EA8700A1008840316875
:1004A000084330600120CCE7002945D0454A9042FE
:1004B00006D1454A926942F00402434B9A6180E0BA
:1004C000424A904206D1404A926942F008023E4BAD
:1004D0009A6176E03E4A904206D13B4A926942F0E8
:1004E0001002394B9A616CE03A4A904206D1364A82
:1004F000926942F02002344B9A6162E0364A90429F
:1005000006D1314A926942F040022F4B9A6158E07D
:10051000324A904206D12C4A926942F080022A4B1C
:100520009A614EE02E4A90424BD1274A926942F49A
:100530008072254B9A6144E0224A904206D1224AB9
:10054000926922F00402204B9A613AE01F4A9042DD
:1005500006D11D4A926922F008021B4B9A6130E0D5
:100560001B4A904206D1184A926922F01002164B9B
:100570009A6126E0174A904206D1134A926922F006
:100580002002114B9A611CE0134A904206D10E4A98
:10059000926922F040020C4B9A6112E00F4A90429D
:1005A00006D1094A926922F08002074B9A6108E05D
:1005B0000B4A904205D1044A926922F48072024BA0
:1005C0009A6170470008014000100240000C014091
:1005D000001001400014014000180140001C0140BF
:1005E0000020014010B501212E48FFF75DFF0323D5
:1005F000002201212B48FFF71BFF032300220221C9
:100600002848FFF715FF0323002219462548FFF766
:100610000FFF0323002204212248FFF709FF0323D1
:10062000002211462048FFF703FF0120014621B1B7
:10063000012282401B4B1A6105E000F110020123E8
:100640009340184A136100BF0220012121B1012209
:100650008240144B1A6105E000F11002012393401F
:10066000104A136100BF0320012121B10122824001
:100670000C4B1A6105E000F1100201239340094A76
:10068000136100BF0420012121B101228240054BEA
:100690001A6105E000F1100201239340014A136141
:1006A00000BF10BD000801400010014070B50021DE
:1006B00000230F22C47804B3154C246804F4E064CA
:1006C000C4F5E064210AC1F10403CA40447804FA85
:1006D00003F184781440214309010E4C0678A1559A
:1006E000047804F01F050124AC4005786D11AD00BD
:1006F00005F1E025C5F8004109E0047804F01F0584
:100700000124AC40044D0678761145F8264070BDB2
:100710000CED00E000E400E080E100E029B1064AD1
:10072000D2690243044BDA6104E0034AD26982438E
:10073000014BDA61704700000010024029B1064AFF
:1007400092690243044B9A6104E0034A926982432E
:10075000014B9A61704700000010024030B5002143
:100760000022002400232D4D6D6805F00C0121B1FD
:10077000042905D0082923D105E0294D056022E090
:10078000274D05601FE0254D6D6805F47012234D5F
:100790006D6805F48034022505EB92421CB9214DA9
:1007A000554305600BE01D4D6D6805F400351DB126
:1007B0001C4D5543056002E0194D5543056002E0AC
:1007C000174D056000BF00BF144D6D6805F0F001C6
:1007D0000909154D6B5C0568DD4045600F4D6D687E
:1007E00005F4E061090A104D6B5C4568DD408560E9
:1007F0000A4D6D6805F46051C90A0B4D6B5C456884
:10080000DD40C560054D6D6805F44041890B074D1D
:100810006B5CC568B5FBF3F5056130BD00100240A7
:1008200000127A0000093D001E0000202E0000206A
:1008300010B500F001F810BD0CB50020019000903B
:100840003348006840F480303149086000BF3048C8
:10085000006800F4003000900198401C019000985E
:1008600018B90198B0F5A06FF1D12948006800F4DB
:10087000003010B10120009001E0002000900098AD
:10088000012843D12348006840F010002149086046
:100890000846006820F0030008600846006840F041
:1008A000020008601A4840681949486008464068D4
:1008B00048600846406840F48060486008464068E8
:1008C00020F47C1048600846406840F4E810486016
:1008D0000846006840F08070086000BF0C4800685F
:1008E00000F000700028F9D00948406820F00300AB
:1008F000074948600846406840F00200486000BF71
:100900000348406800F00C000828F9D10CBD000035
:10091000001002400020024010B51348006840F06B
:1009200001001149086008464068104908400E4916
:100930004860084600680E4908400B4908600846B0
:10094000006820F4802008600846406820F4FE001B
:1009500048604FF41F008860FFF76AFF4FF00060A7
:100960000449086010BD0000001002400000FFF8BC
:10097000FFFFF6FE08ED00E010B50121254800F06C
:100980009CF8002845D00121224800F087F822A0D9
:10099000FFF71CFC002025498968C14001F00101D6
:1009A00071B1014621B101228240204B1A6105E05C
:1009B00000F11002012393401C4A136100BF0FE0B5
:1009C0000020012121B101228240184B1A6105E06B
:1009D00000F1100201239340144A136100BF00BFCD
:1009E000134800680A2811DA12480068C0B2114999
:1009F00008600F4801680068401C0D4A10600E48EE
:100A000030F811000B49091D086002E00020084978
:100A1000086010BD00040040656D62656464656433
:100A20002073797374656D200D0A00000010014079
:100A3000140000200C0C0140000000207FB505468A
:100A40000C4601210220FFF769FEADF80850ADF811
:100A500004400020ADF80A00ADF8060001A90E48D8
:100A600000F046F8012211460B4800F037F81D202F
:100A70008DF8000000208DF8010003208DF80200A1
:100A800001208DF803006846FFF710FE012102489F
:100A900000F007F87FBD000000040040CA43028256
:100AA000704721B1028842F00102028004E002880E
:100AB0004FF6FE731A400280704730B502460020A0
:100AC00000230024158A05EA0103958905EA01043B
:100AD00013B10CB1012000E0002030BD1AB18389B0
:100AE0000B43838102E083898B438381704700003D
:100AF000002202881D4B98420ED01D4B98420BD00D
:100B0000B0F1804F08D01B4B984205D01A4B984249
:100B100002D01A4B984204D14FF68F731A404B887B
:100B20001A43174B984207D0164B984204D04FF601
:100B3000FF431A40CB881A4302808B8883850B8839
:100B400003850A4B98420BD0094B984208D00E4BB4
:100B5000984205D00D4B984202D00D4B984201D1DE
:100B60000B7A03860123838270470000002C01402A
:100B7000003401400004004000080040000C004028
:100B800000100040001400400040014000440140BB
:100B90000048014010B501211948FFF785FC0323E7
:100BA000002208211648FFF743FC032300220921F5
:100BB0001348FFF73DFC032300220A211048FFF7EA
:100BC00037FC032300220B210D48FFF731FC0323E0
:100BD00000220C210A48FFF72BFC032300220D21E1
:100BE0000748FFF725FC032300220E210448FFF7E6
:100BF0001FFC032300220F210148FFF719FC10BD41
:100C0000000C014010B540F22551044800F014F8E2
:100C100018B1024800F0CCF8C4B210BD0038014051
:100C200021B1828942F40052828104E082894DF62A
:100C3000FF731A408281704770B50246002400237A
:100C40000025002040F66A16B14200D100BFC1F372
:100C5000421501F01F03012606FA03F3012D02D10C
:100C60009689334006E0022D02D1168A334001E016
:100C7000968A33400C12012606FA04F41688344092
:100C800013B10CB1012000E0002070BDF0B50346A7
:100C9000002400260025002040F66A17B94200D142
:100CA00000BF1846C1F3421401F01F06012707FADE
:100CB00006F5012C01D10C3004E0022C01D11030DA
:100CC00000E014301AB107682F43076002E007689C
:100CD000AF430760F0BD00002DE9F04786B0054640
:100CE0000E460024A24600BFA1460027B08900B1ED
:100CF00000BF2F462C8A4CF6FF700440F088044356
:100D00002C82AC894EF6F3100440B0883189084338
:100D1000718908430443AC81AC8A4FF6FF4004401C
:100D2000B0890443AC8201A8FFF718FD1F48874231
:100D300002D1DDF810A001E0DDF80CA0A88900F4D4
:100D4000004040B10AEBCA0000EB0A1031684900CC
:100D5000B0FBF1F807E00AEBCA0000EB0A103168BB
:100D60008900B0FBF1F86420B8FBF0F00401200921
:100D7000642101FB1089A88900F4004040B13220B1
:100D800000EBC900B0FBF1F000F00700044308E0FD
:100D9000322000EB09106421B0FBF1F000F00F00ED
:100DA00004432C8106B0BDE8F08700000038014004
:100DB00001468888C0F308007047014600BF7047AD
:100DC00000BF054A128802F04002002AF9D0C2B2E0
:100DD000014B1B1D1A807047003801402DE9FC5F54
:100DE00005468A4616461F46DDF830804FF000095A
:100DF00000241BE057F8240000F0CCFC5146009082
:100E000000F0ACFD834656F8240000F0C3FC2946F0
:100E1000009000F0A3FD5946019000F0D3FC8146FC
:100E20004946484600F076FB8146641C4445E1DBB8
:100E3000404600F0AFFC83465946484600F0CCFBE4
:100E400081464846BDE8FC9F2DE9F04106460C4628
:100E5000002509E056F8250000F09CFC8046394644
:100E600000F058FB07466D1CA542F3DB204600F05E
:100E700091FC80464146384600F0AEFB07463846B6
:100E8000BDE8F0812DE9FC5F06460C469146002541
:100E900016E056F8250000F07DFC8046494600F03B
:100EA0005DFD074600F05AFC83460BFB0BFB5846E2
:100EB00000F070FC0746514600F02CFB82466D1C8A
:100EC000A542E6DB204600F065FC07463946504661
:100ED00000F082FB8246504600F0F0FACDE90001B6
:100EE00000F014F9074600F07DF982465046BDE84F
:100EF000FC9F000010B501210D48FFF7D5FA002333
:100F0000032205210A48FFF793FA00230322062152
:100F10000748FFF78DFA0023032207210448FFF753
:100F200087FA0023032208210148FFF781FA10BD48
:100F300000080140A2B0202272491AA8FFF752F916
:100F40003022704920310EA8FFF74CF930226D494C
:100F5000503102A8FFF746F900BFFFF743FBFFF748
:100F600019FEFFF7C7FF4FF4614000F0F5F8D821F4
:100F70004CF25030FFF762FD08211AA8FFF7ECF998
:100F80000C210EA8FFF760FF04460C2102A8FFF712
:100F90005BFF054622460C210EA8FFF773FF0646AD
:100FA0002A460C2102A8FFF76DFF07460C2002AB72
:100FB0000EAA294600902046FFF710FF394630461A
:100FC00000F000FC80469BE005204F498968C14045
:100FD00001F0010179B10120014621B101228240D5
:100FE000494B1A6105E000F1100201239340464A83
:100FF000136100BF0FE00120002121B101228240D6
:10100000414B1A6105E000F11002012393403E4A72
:10101000136100BF00BF06203B498968C14001F051
:10102000010179B10220012121B101228240364B18
:101030001A6105E000F1100201239340324A136166
:1010400000BF0FE00220002121B1012282402E4B7F
:101050001A6105E000F11002012393402A4A13614E
:1010600000BF00BF072028498968C14001F0010185
:1010700079B10320012121B101228240224B1A6162
:1010800005E000F11002012393401F4A136100BFE5
:101090000FE00320002121B1012282401A4B1A6186
:1010A00005E000F1100201239340174A136100BFCD
:1010B00000BF082014498968C14001F0010179B1DD
:1010C0000420012121B1012282400F4B1A6105E069
:1010D00000F11002012393400B4A136100BF0FE09F
:1010E0000420002121B101228240074B1A6105E052
:1010F00000F1100201239340034A136100BF00BFB7
:1011000062E70000481A0008000801402DE9F0419C
:1011100006460F4600F0ECF8041E0D4618BF0120ED
:10112000284320F00040C0F17F6000F1E040C00F94
:101130000ED0301C18BF0120384320F00040C0F111
:101140007F6000F1E040C00F04BF0120FFF785F889
:1011500020462946BDE8F08110B586B0044601213D
:101160008803FFF7EBFA01211C48FFF79DF90323E1
:10117000022209211948FFF75BF9002301220A2105
:101180001648FFF755F925208DF8040003208DF847
:10119000050001208DF806008DF8070001A8FFF773
:1011A00085FA02940020ADF80C00ADF80E00ADF801
:1011B0001000ADF814000C20ADF8120002A9084888
:1011C000FFF78AFD012240F225510548FFF75EFD39
:1011D00001210348FFF724FD06B010BD00080140BF
:1011E0000038014021F00042A2F16052B2F5801FA8
:1011F00001F0004328BFD2F17F6C0BD95FEA001CDD
:1012000043EAC20242EB507018BF704728BF20F07B
:1012100001007047B2F5801FBCBF184670474FEA07
:10122000410C1CF5001F02D2084600F092BB70B5BD
:1012300000F009F800000089FFF7F6BF4FF000400A
:10124000A0F5800070470EF1020E2EF0030E5EF83E
:10125000046B364205D4012A43EB030515F5001F44
:1012600012D8012841EB010C1CF5001F0CD80ED13F
:101270004FEAD17C15F5001F0CEB4C0C0CF1020C65
:1012800008BF4CEBD37C04E04FF0080C01E04FEAC0
:10129000D37C0CEB4C0526FA05F606F00706B6F1F2
:1012A000040C06D20EEB860CBDE870404CF0010C2D
:1012B0006047DFE80CF0090B02024FF000414FF0ED
:1012C0000000A1F5002170BD19461046012851EB20
:1012D000010418BFD4F5001484BF002001F00041C0
:1012E00070BD0808A0F500114FEA310170470000F9
:1012F0002DE9F04101F5801CBCF5001FC0F2C38050
:101300004FEA115C21EA0C510CF1FD0C41F4801103
:101310005FEA5C0C0CF5C07C01D3400049413DA460
:10132000890241EA905187028E0E0A0CA45D04FBEB
:1013300004F602FB06F6C6F14046A4FB0662F60D73
:1013400046EA422606FB06F4A4FB01235242C3F1FF
:10135000404338BF5B1EA6FB02420024E6FB032489
:10136000D20B42EA4446A6FB0623A1FB02E2A3FB02
:1013700007E4A4184FF0000252F10002E3FB01421F
:101380006442C2F1404E38BFAEF1010EA6FB042309
:101390004FF00002E6FB0E32A2FB03464FF00004C2
:1013A000B61954F10004E2FB0264A1FB06E6A4FBBB
:1013B00007E816EB08064FF0000858F10008E4FBB8
:1013C00001687642C8F1405838BFA8F10108A2FB75
:1013D00006E4A3FB08E52D194FF0000454F10004C6
:1013E000E2FB0854A1FB05E6A7FB04E818EB06089E
:1013F0004FF0000656F10006E1FB048618F12005C7
:1014000056F10006A809A8F11B08B10908F03F0829
:10141000B8F10A0F40EA86601CD901EB0C51BDE817
:10142000F08100BFFCF5EEE8E2DDD8D3CFCBC7C337
:10143000C0BDB9B6B4B1AEACA9A7A5A3A19F9D9BF1
:101440009A9896959392908F8D8C8B8988878685B4
:1014500084838281A0FB006800FB01F208EB420854
:10146000B8EB872807D5341858EB0104D5D5401CB4
:1014700051F10001D1E7341A78EB0104CDD4401EBC
:1014800071F10001C9E75FEA4C0C5FEA9C5C0DD189
:1014900005D34FF0000001F00041BDE8F081BDE848
:1014A000F04170B5FFF7CFFE6DDBFFBEBDE8F04148
:1014B0004FF00000004970470000F87F43004FEAFA
:1014C000D30C4FEA3C0C43401FBF40070CF1605166
:1014D00013F0FE4F70471CF0006F03D100200CF09A
:1014E000004170470CF0004343EA507010B540EAE9
:1014F000CC0000F0E8F900BF000000924FEA0001C4
:10150000FFF7EFBE4FF000414FF00000A1F50021C2
:101510007047000090EA010F48BF81F0004100F1E0
:101520002482421A3CBF801A89184FEAD0524FF0E9
:101530007F4C1CEA410FA2EBD15318BF9CEA026F0B
:1015400000F03B804FF0004C4CEA00204CEA0121B7
:1015500021FA03FC10EB0C0C1ED202F1FF325FEA01
:101560001C2040EBC25038BF70471CF07F0F4FEA81
:10157000400C18BFBCF17F4F38BF7047C3F1200348
:10158000994008BF20F00100BCF17F4F38BF704781
:10159000A0F1C04000F0DDB94FEA3C00000A40EB8A
:1015A000C25028BF1CF0FF0F4FEA400CE6D018BF16
:1015B000BCF17F4F38BF7047EAE79CEA026F05D065
:1015C00010EA5C0F08BF00F00040704710B500F053
:1015D0007AF900BF64FBBE3E4FF47F0C1CEAD012C8
:1015E0001EBF1CEAD11392EA0C0F93EA0C0F00F015
:1015F000858090EA010F48BF42F4807240F4000CED
:1016000041F400002CF07F4120F07F4000B5814282
:10161000A2EB03020FF2081CACEB504EC0F100002D
:101620009EF800E04FEA4E0E00FB0EFC38BF49006A
:101630004FEA2C1C02F5FA020CFB0EF34FEACE1E09
:101640004FEA112C4FEAC1210EEB635E42EB2242BE
:101650000EFB0CFC4FEA1C5300FB03114FEA112C4C
:101660004FEA01310EFB0CFC4FEADC4C00FB0C1185
:10167000C14228BF09184CEB03335DF804EB10EBB3
:10168000410143EBC250B2F57C0F38BF704729D5FA
:1016900012F0F00F1CBF00F1C04000F00040704796
:1016A000008182838485868788898B8C8D8E8F913B
:1016B0009293959697999A9C9D9FA0A2A3A5A7A85F
:1016C000AAACAEB0B2B3B5B7B9BCBEC0C2C5C7C98B
:1016D000CCCED1D4D7D9DCDFE2E6E9ECF0F3F7FAEF
:1016E000FE0000004FEA400C0CF1807CBCF17E4F04
:1016F00028BF7047B0F1C04000F02BB990EA010F4D
:101700000CEAD11348BF42F48072624538BF63458A
:1017100007D213F47F0F16D080EA010000F00040DA
:10172000704710B500F0CFF8097EFC3E00F005B818
:1017300080EA010000F00040704780EA010000F0FC
:10174000004000F006B912F47F0F04BF0248704752
:1017500080EA010000F0FDB80000C07F41000B0EE0
:10176000D3F19E0208D950F400034FEA032323FA71
:1017700002F048BF4042704710B500F0A4F800BF27
:1017800049922480002070476FF0004282EA2000D6
:101790007047000010F0004148BF4042B0FA80F3AB
:1017A00010FA03F2C3F19D030BD051EAC35101EBD0
:1017B0001220530638BF704700F1010008BF20F027
:1017C000010070474FF47F0C1CEAD0121EBF1CEAC8
:1017D000D11392EA0C0F93EA0C0F00F0478090EAC5
:1017E000010F48BF42F480724FF0004C4CEA0020D9
:1017F0004CEA012102EB0302A0FB0113A2F5000257
:10180000002918BF43F001035B0028BF4FEA3303F0
:1018100042EB22425FEA132C4CEBC2502EBFBCEBD2
:10182000436FB2F57C0F70474FEA036CBCF1004F79
:1018300008BF20F00100B2F57C0F38BF70470BD510
:1018400082F0FF0212F5803FC8BF704700F1C04030
:10185000D8BF00F00040704700F5000C5FEA4C0C68
:1018600048BF7047B0F1C04000F073B890EA010F74
:101870000CEAD11348BF42F48072624538BF634519
:1018800004D280EA010000F00040704710B500F07B
:101890001AF800BF8900013E00F007B800F009B84F
:1018A0005FEA410C5FEA1C6C08D080EA010000F09E
:1018B00050B85FEA400C5FEA1C6CF6D14FF0004074
:1018C000A0F5800070470EF1020E2EF0030E5EF8B8
:1018D000044B244204D44FEA4102B2F17F4F11D8A5
:1018E0004FEA4003B3F17F4F0CD80ED14FEAD07CC2
:1018F000B2F17F4F0CEB4C0C0CF1020C08BF4CEB1F
:10190000D17C04E04FF0080C01E04FEAD17C0CEBF5
:101910004C0324FA03F404F00704B4F1040C06D2D7
:101920000EEB840CBDE810404CF0010C6047DFE882
:101930000CF0070802024FF00040A0F5800010BD37
:101940000846420018BFD2F1807288BF00F0004004
:1019500010BDFF2141EAD050C005704790EA010F49
:1019600048BF81F000413FF5DCAD421A04D882F057
:101970000042A0EB020011444FEAD0524FF07F4CDE
:101980001CEA410FA2EBD15318BF9CEA026F4AD068
:101990004FF0004C4CEA00204CEA012121FA03FCF4
:1019A000B0EB0C0C0FD412F0FE0F36D05FEA4C00F7
:1019B0001DD5001240EBC25038BF70471CF03F0FDE
:1019C00018BF70470BE0A2F101025FEA1C2040EB58
:1019D000C25038BF70471CF07F0F18BF7047C3F16B
:1019E0002003994014BF401E20F00100704780087A
:1019F0004FEA122308BF7047B0FA80FCA2EB0C023A
:101A0000CCF1280C60FA0CF093EA122F04BF00EB23
:101A1000C25070474FEAC3707047130A5FEADC1088
:101A200008BF7047F6E79CEA026F04D010EA5C0F2B
:101A300008BF0020704710B5FFF745FF40DFF63EB6
:101A400081F00040704700000C0000000F00000013
:101A50000400000009000000070000000A00000068
:101A60000B00000002000000010000000A0000005E
:101A7000090000000500000003000000060000004F
:101A8000050000000200000007000000090000003F
:101A900002000000060000000B000000140000001F
:101AA00013000000140000000800000010000000F7
:101AB0000F0000000C0000001100000013000000E7
:101AC0000C00000010000000E81A000800000020D0
:101AD00034000000280100081C1B0008340000200E
:101AE000640600004401000800C000F900A400B032
:101AF00000990092008200F8008000900000000031
:101B000000000000000000000000010203040102C8
:0C1B100003040607080902040608000090
:04000005080000ED02
:00000001FF
